:100000000C948E040C94B6040C94B6040C94B604B0
:100010000C94B6040C94B6040C94B6040C94B60478
:100020000C94B6040C94B6040C9495070C94070831
:100030000C94B6040C94B6040C94B6040C94B60458
:100040000C94B6040C94B6040C94B6040C94B60448
:100050000C94870D0C94B6040C94B6040C94C20B4B
:100060000C94B6040C94B6040C94B6040C94B60428
:100070000C94B6040C94B6040C94B6040C94B60418
:100080000C94B6040C94B6040C94B6040C94B60408
:100090000C94B6040C94B6040C94B6040C94B604F8
:1000A0000C94B6040C94B6040C94B60431063406D1
:1000B000230627062D0655065506550638063C0626
:1000C000400646064A06550650064C6F6164696E46
:1000D0006720436F6E6669672100536176696E67BA
:1000E00020507265736574732100536176696E6781
:1000F00020436F6E6669672100070605040100084A
:100100000A0B0C0D0900000000000000002A2B283B
:1001100000000000000000000000000000000000DF
:1001200000000000002C9EB4A0A1A2A434A6A7A5A4
:10013000AE362D3738271E1F20212223242526B333
:1001400033B62EB7B89F8485868788898A8B8C8D35
:100150008E8F909192939495969798999A9B9C9D47
:100160002F3130A3AD350405060708090A0B0C0D25
:100170000E0F101112131415161718191A1B1C1D27
:10018000AFB1B0B50000000000240027002A002D08
:1001900000300000000000250028002B002E003158
:1001A00000000000002300260029002C002F00047E
:1001B000040404040304050202020204030202020E
:1001C00002060606060606040402020204040408E7
:1001D000020110408040102040804080080204014D
:1001E00080402010020110801020404020000000BC
:1001F0000200090F0000030401000C0000000000D1
:10020000000000000000000000000000080B0002D9
:10021000020201000904000001020200000524009E
:100220001001052401010104240206052406000131
:100230000705810310004009040100020A000000C4
:100240000705020240000007058302400000040386
:10025000090412010002EF0201404123368000012F
:100260000102030141726475696E6F204C4C4300BA
:1002700041726475696E6F204C656F6E6172646F58
:10028000002020202020202000203D2000203D2094
:10029000463132202020202000203D2046313120D0
:1002A0002020202000203D2046313020202020200A
:1002B00000203D20463920202020202000203D2005
:1002C000463820202020202000203D2046372020B6
:1002D0002020202000203D204636202020202020E5
:1002E00000203D20463520202020202000203D20D9
:1002F000463420202020202000203D20463320208E
:100300002020202000203D204632202020202020B8
:1003100000203D2046312020202020200020203DAC
:1003200020537061636520202000203D20436170D0
:1003300073204C6B2000203D20456E64202020203F
:100340002000203D20486F6D652020202000203DAA
:1003500020506720446F776E2000203D205067209A
:10036000557020202000203D2044656C6574652078
:100370002000203D20496E73657274202000203DCE
:1003800020455343202020202000203D205265742A
:1003900075726E202000203D2054414220202020F4
:1003A0002000203D204261636B7370632000203D7C
:1003B00020522047554920202000203D2052204136
:1003C0006C7420202000203D205220536869667400
:1003D0002000203D2052204374726C202000203DDC
:1003E000204C2047554920202000203D204C204112
:1003F0006C7420202000203D204C205368696674D6
:100400002000203D204C204374726C202000203DB1
:100410002052204172726F772000203D204C2041F5
:1004200072726F772000203D2044204172726F77F6
:100430002000203D2055204172726F772000203D22
:1004400020416C74203220202000203D20416C741B
:10045000203120202000203D20566F6C202D2020B0
:100460002000203D20566F6C202B20202000203DB6
:1004700020477061642000203D204A6F792032209F
:1004800059202000203D204A6F792032205820201A
:1004900000203D204A6F7920312059202000203D46
:1004A000204A6F7920312058202000203D204770BD
:1004B0006164205A2D202000203D20477061642077
:1004C0005A2B202000203D204770616420522020BC
:1004D0002000203D2047706164204C202020002017
:1004E0003D2047706164204420202000203D2047AB
:1004F0007061642055202020000A3C6B6579636F91
:1005000064653E207461626C653A0A00203D2053A8
:10051000434C4B202020202000203D204D49534FAC
:10052000202020202000203D204D4F534920202016
:10053000202000203D20566F6C20446F776E2000F5
:10054000203D20566F6C20557020202000203D203B
:1005500045736361706520202000203D20456E7446
:1005600065722020202000203D20436F696E2020EE
:1005700020202000203D2053746172742020202010
:100580000020203D2042746E2036202020200020B4
:10059000203D2042746E2035202020200020203D68
:1005A0002042746E2034202020200020203D204254
:1005B000746E2033202020200020203D2042746EC5
:1005C0002032202020200020203D2042746E203147
:1005D000202020200020203D204A6F79205220201A
:1005E00020200020203D204A6F79204C2020202010
:1005F0000020203D204A6F79204420202020002028
:10060000203D204A6F79205520202020000A3C629E
:100610007574746F6E3E207461626C653A0A0051A5
:100620007569636B2047616D657061643A2020676E
:1006300000517569636B204B6579626F6172643A32
:10064000206B004C6F61643A202020202020202065
:100650002020206C00536176653A20202020202045
:10066000202020202073004D6F64653A2020202038
:10067000202020202020206D203C3120616C74310E
:100680002C203220616C74323E203C6820686F6CF4
:10069000642C207420746F67676C653E0044756D30
:1006A0007020616C6C3A20202020202020640042C1
:1006B000696E6420616C6C3A20202020202020612B
:1006C000203C6B6579636F64653E203C6B657963A4
:1006D0006F64653E202E2E2E0042696E6420736981
:1006E0006E676C653A2020202062203C627574742D
:1006F0006F6E3E203C6B6579636F64653E203C6F96
:100700007074696F6E616C3A616C74313E203C6F3D
:100710007074696F6E616C3A616C74323E000A509D
:10072000696361646520436F6E6669670053617633
:10073000696E6720566F6C756D653A2000566F6C58
:10074000756D653A2000566F6C756D653A200055E1
:10075000736167653A2062203C627574746F6E3E07
:10076000203C6B6579636F64653E203C6F707469F3
:100770006F6E616C3A616C74313E203C6F707469CD
:100780006F6E616C3A616C74323E0020616C743241
:100790003A200020616C74313A200020746F3A20B6
:1007A00000426F756E643A200055736167653A20A8
:1007B00061203C6B6579636F64653E203C6B6579B5
:1007C000636F64653E202E2E2E00206B65792873A2
:1007D0002900426F756E6420004C6F61646564206F
:1007E0004475616C20416E616C6F67004C6F616491
:1007F00065642047616D65706164004C6F6164657C
:1008000064204B6579626F6172640045473A206DE0
:100810002031207420203D202053657420616C74A9
:100820003120746F202874296F67676C65206D6FA5
:1008300064650055736167653A206D203C31206125
:100840006C74312C203220616C74323E203C682064
:10085000686F6C642C207420746F67676C653E0051
:10086000416C74322073657420746F20746F6767F5
:100870006C6500416C74322073657420746F20685D
:100880006F6C6400416C74312073657420746F2048
:10089000746F67676C6500416C74312073657420F8
:1008A000746F20686F6C64005069636164652076C2
:1008B000322E330005010906A1018502050719E062
:1008C00029E7150025017501950881029501750834
:1008D000810395067508150025650507190029652A
:1008E0008100C005010904A1018503050919012939
:1008F0001015002501750195105500650081020550
:100900000109011581257FA1000930093109330949
:1009100034750895048102C0C000731811241FBEED
:10092000CFEFDAE0DEBFCDBF11E0A0E0B1E0E6E35B
:10093000F3E302C005900D92A63EB107D9F723E07C
:10094000A6EEB1E001C01D92A930B207E1F714E0B4
:10095000CEE8D4E004C02197FE010E948719CD386B
:10096000D107C9F70E94F4110C9499190C94000056
:100970004091760250917702209174023091750275
:1009800042175307B4F49091E8009570E1F3909109
:10099000E80092FD19C08093F10080917602909159
:1009A000770201968F739927892B19F48EEF809324
:1009B000E8008091760290917702019690937702F9
:1009C0008093760281E0089580E00895CF92DF92CF
:1009D000EF92FF920F931F93CF93DF931F92CDB7A8
:1009E000DEB7182F062FE42E862F880F8E5F99838F
:1009F0000E94B80483E00E94B804F12EC12E9981B0
:100A0000D92E8C2D8F19801798F4F601E7FE02C0BD
:100A1000849101C080810E94B804182F80E00E9458
:100A2000B8048123FFEFCF1ADF0A8111EACF01C09A
:100A300081E00F90DF91CF911F910F91FF90EF9088
:100A4000DF90CF900895DF92EF92FF920F931F9364
:100A5000CF93DF93D82E8A017B01E40EF51EEB01C4
:100A6000CE15DF0571F0D7FE03C0FE01849101C0F1
:100A700088810E94B80421968111F2CF8FEF9FEFF9
:100A800001C0C801DF91CF911F910F91FF90EF90AE
:100A9000DF9008952FB7F89487708093E9009091C4
:100AA000E800892F807295FF04C09091F20080E4E5
:100AB000891B2FBF0895615030F02091F100FC0197
:100AC00020830196F8CF289884E6809389020895C0
:100AD000CF92DF92EF92FF920F931F93CF93DF930A
:100AE0006C017A018B01C0E0D0E0CE15DF0589F002
:100AF000D8016D918D01D601ED91FC910190F081AD
:100B0000E02DC6010995892B11F47E0102C02196C2
:100B1000ECCFC701DF91CF911F910F91FF90EF9024
:100B2000DF90CF90089580916C0281110DC082E01A
:100B30008093680284E08093690210926B021092A5
:100B40006A0281E080936C0288E692E008950F9338
:100B50001F93CF93DF931F92CDB7DEB782E08983D7
:100B600042E450E06CE072E080E80E9423050E94BD
:100B70009305DC0112960D911C9113970115110537
:100B800069F0D801ED91FC910280F381E02DBE0166
:100B90006F5F7F4FC801099597FF07C089810F904C
:100BA000DF91CF911F910F910895F8010085118574
:100BB000E5CFCF93DF931F92CDB7DEB76983DC011A
:100BC000ED91FC910280F381E02D41E050E0BE0107
:100BD0006F5F7F4F09950F90DF91CF91089583E06C
:100BE0008093E9008091F200882319F08AE38093D2
:100BF000E800089583E00E944A0590E00895FC0112
:100C00008485958597FD0BC09FB7F89482E080930B
:100C1000E9008091F2009FBF90E0019608959FB790
:100C2000F89482E08093E9008091F2009FBF90E009
:100C3000089590E0FC013197EF30F105B0F5EA5AE4
:100C4000FF4F0C948719809180008F7703C08091AB
:100C500080008F7D80938000089580918000877F41
:100C6000F9CF84B58F7702C084B58F7D84BD089598
:100C7000809190008F7707C0809190008F7D03C096
:100C800080919000877F8093900008958091C000AC
:100C90008F7703C08091C0008F7D8093C00008953E
:100CA0008091C200877F8093C20008953FB7F89477
:100CB0008091640290916502A0916602B0916702F2
:100CC00026B5A89B05C02F3F19F00196A11DB11DA7
:100CD0003FBFBA2FA92F982F8827820F911DA11DE2
:100CE000B11DBC01CD0142E0660F771F881F991F1F
:100CF0004A95D1F70895DC01FB0112968C91129769
:100D000090E02481358182179307D1F4918180810D
:100D1000813A31F481E0913091F0933089F411C03F
:100D2000813271F49B3021F482811F968C9305C02F
:100D30009A3031F4828150968C9381E00895089521
:100D400080E00895DC01FB0188E4808389E48183ED
:100D500084E482831D969C911D979F709F5B938373
:100D60001D968D919C911E9724E0969587952A95C6
:100D7000E1F78F708F5B848385E00895EF92FF9297
:100D80000F931F93CF93DF93FB012081213851F5FF
:100D90002381223239F5DC0112962C9130E0448116
:100DA000558142175307F1F4EC010B851C85E12CAA
:100DB000F12C0115110591F0F801448155816281F2
:100DC000738180E80E9423058F3FFFEF9F0769F042
:100DD000E80EF91ED8010D911C91EBCF81E08F87B1
:100DE000C70105C080E090E002C08FEF9FEFDF9168
:100DF000CF911F910F91FF90EF900895CF93DF93C4
:100E0000CDB7DEB769970FB6F894DEBF0FBECDBF82
:100E1000FC01DB018C918F5F8C93BE016F5F7F4F74
:100E200089E1DB011D928A95E9F729E0298384E0B5
:100E30008A8391E09D8383E08E832A8721E22B873A
:100E40009C879D879F8722E2288B27E02B8B25E0BC
:100E50002C8B8E8B20E430E0388F2F8B998F828102
:100E60008B8395858685998B8A8B838180688D8B12
:100E700049E150E080E00E94230569960FB6F8949E
:100E8000DEBF0FBECDBFDF91CF910895FC018281FF
:100E90008F5BFB01808381E00895089580E090E0FE
:100EA00008950E949419CF93DF931F92CDB7DEB7B8
:100EB000FC018485958597FD05C02FEF3FEF3587B1
:100EC00024870BC0CE0101960E94CA11019719F424
:100ED000898190E002C08FEF9FEF0F90DF91CF915B
:100EE00008950F931F93CF93DF931F92CDB7DEB773
:100EF0008C01FC018485958597FF0EC0CE0101967B
:100F00000E94CA11019719F4298130E002C02FEF25
:100F10003FEFF80135872487F801848595850F9088
:100F2000DF91CF911F910F9108951F920F920FB6ED
:100F30000F9211248F939F938091E1009091E10093
:100F4000937F9093E10083FF0FC01092E90091E03E
:100F50009093EB001092EC0092E39093ED001092CE
:100F60008A0298E09093F00082FF20C093E0909373
:100F7000E9009091F200992319F09AE39093E80028
:100F800090917802992339F0909178029150909342
:100F90007802992389F190918902992339F09091EF
:100FA0008902915090938902992341F184FF10C0E6
:100FB0008091E2008E7E81608093E2008091E1006A
:100FC0008F7E8093E10080917A028E7E806111C0D5
:100FD00080FF16C08091E2008E7E80618093E200E7
:100FE0008091E1008E7E8093E10080917A028E7E76
:100FF000816080937A0204C05D9ACDCF289AD6CFC3
:101000009F918F910F900FBE0F901F9018951F9278
:101010000F920FB60F921124CF92DF92EF92FF92B0
:101020000F931F932F933F934F935F936F937F93F0
:101030008F939F93AF93BF93EF93FF93CF93DF93E0
:10104000CDB7DEB76C97DEBFCDBF1092E9008091BF
:10105000E80083FFEDC168E0CE0145960E945B0584
:1010600082EF8093E8008D8987FF05C09091E800AA
:1010700090FFFCCF03C09EEF9093E800982F9076EE
:1010800009F0C6C09E892F89188D91110CC0803837
:1010900029F480917B028093F10002C01092F1004C
:1010A0001092F10048C1422F50E0512B913051F481
:1010B000811141C14130510509F03DC180917B0250
:1010C0008D7F0BC0933061F4811135C141305105E2
:1010D00009F031C180917B02826080937B022BC139
:1010E000953041F48091E80080FFFCCF2068209388
:1010F000E30021C1963009F05FC0EB8CFC8C1092AC
:10110000E9001092770210927602123091F5109257
:101110007502109274020E94A70599E0BE016F5FEC
:101120007F4FDB01E92F1D92EA95E9F799831A8336
:1011300091E09E8390EA98879AEF998720917602B2
:1011400030917702275F3F4F3C832B838D83109232
:10115000E9001092770210927602F0927502E09206
:10116000740249E050E080E00E9423050E94A70538
:10117000E2C0F0927502E09274020E949305DC01D5
:101180001296ED90FC901397E114F10409F4C0C09D
:10119000D701ED91FC910480F581E02DBE016B5EDD
:1011A0007F4FC7010995009719F00CF0C4C0C7C064
:1011B000F701E084F184E8CF973009F4C0C098309B
:1011C00021F481E08093F100B6C0993009F0B3C0FA
:1011D000837009F0B4C0E1E0F1E081E021E036E3A2
:1011E0009081992361F08093E9002093EB00919125
:1011F0009093EC003093ED008F5F873089F78EE796
:101200008093EA001092EA008F8980938A0293C04B
:101210008B8D9C8D1092E9001092770210927602CD
:101220009093750280937402898D811156C08E89C6
:101230009D89913A59F4813209F081C047E050E02C
:101240006BE071E080E00E94230575C0913209F0E7
:1012500076C0833289F4888D90E0982F88272F8973
:10126000822BA0E0B0E08093070190930801A09347
:101270000901B0930A015FC0803269F48091E800EF
:1012800082FFFCCF67E08BE091E00E945B058BEF73
:101290008093E80006C0823209F04DC08F898093A8
:1012A000120180917902882319F0EEEFFAE002C072
:1012B000E0E0F8E080910B0190910C01A0910D010C
:1012C000B0910E01803B9440A105B10509F07BC0AF
:1012D0008091120180FF93C076C00E949305DC01CB
:1012E00012960D911C9113970115110541F1D8012A
:1012F000ED91FC910190F081E02DBE016B5E7F4F7E
:10130000C8010995811117C0F80100851185ECCF3E
:10131000113009F44EC0133091F48F89882309F4F9
:1013200045C0823081F440E860E180E792E00E94AD
:10133000E604882321F08EEF8093E80079C081E2F3
:101340008093EB0075C0813029F440E86BE084E6BF
:1013500092E0EDCF833099F70E949305DC0112965D
:10136000ED90FC9013978E010F5F1F4F6801E11401
:10137000F10479F0D701ED91FC910680F781E02D21
:10138000B801C7010995080F111DF701E084F18428
:10139000EECFD8011C92F60101900020E9F73197B9
:1013A000BF016C197D0940E0C601C1CF6EE472E057
:1013B00002C062E572E06115710509F2FB0144911A
:1013C00050E080E840CF0FB6F894A8958091600077
:1013D000886180936000109260000FBEA895EE3F78
:1013E0002AE0F20739F08091FE0A9091FF0A91837A
:1013F0008083A1CF1092FF0A1092FE0A9CCFEE3F8D
:101400008AE0F80731F0808191819093FF0A809300
:10141000FE0A87E797E7918380839BE088E10FB618
:10142000F894A895809360000FBE9093600083CFDE
:101430006C960FB6F894DEBF0FBECDBFDF91CF9193
:10144000FF91EF91BF91AF919F918F917F916F919C
:101450005F914F913F912F911F910F91FF90EF90CE
:10146000DF90CF900F900FBE0F901F901895CF93E5
:10147000DF93282F30E0F901E351FE4F8491F90109
:10148000E253FE4FD491F901E155FE4FC491CC23B4
:1014900091F081110E941906EC2FF0E0EE0FFF1F72
:1014A000EF55FE4FA591B491EC91ED2381E090E0D2
:1014B00021F480E002C080E090E0DF91CF910895B8
:1014C0001F93CF93DF93282F30E0F901E351FE4FB4
:1014D0008491F901E253FE4FD491F901E155FE4F99
:1014E000C491CC23C9F0162F81110E941906EC2F4C
:1014F000F0E0EE0FFF1FED56FE4FA591B4918FB7B0
:10150000F894111105C09C91ED2FE095E92302C0DC
:10151000EC91ED2BEC938FBFDF91CF911F9108954C
:10152000CF93DF9390E0FC01E253FE4F2491FC0146
:10153000E155FE4F8491882361F190E0880F991F57
:10154000FC01EB57FE4FC591D491FC01ED56FE4FC7
:10155000A591B491611109C09FB7F8948881209535
:1015600082238883EC912E230BC0623061F49FB7F5
:10157000F8943881822F809583238883EC912E2BD9
:101580002C939FBF06C08FB7F894E8812E2B288339
:101590008FBFDF91CF9108958F929F92AF92BF92AC
:1015A000CF92DF92EF92FF926B017C010E94560670
:1015B0004B015C01C114D104E104F104F1F00E947B
:1015C0005606DC01CB0188199909AA09BB09883E96
:1015D0009340A105B10570F321E0C21AD108E108DA
:1015E000F10888EE880E83E0981EA11CB11CC1147E
:1015F000D104E104F10419F7DDCFFF90EF90DF9003
:10160000CF90BF90AF909F908F9008957F928F92D0
:101610009F92AF92BF92CF92DF92EF92FF920F9381
:101620001F93CF93DF93C82E8B017A0180918A029A
:10163000811103C08FEF9FEF75C080917A0280FF08
:1016400005C08091E00082608093E000CE2DDF2D08
:10165000D12C8AEF882E8C2D8770B82E8C2D80721D
:10166000A82E8C2D8074982E9AE3792E209709F459
:1016700052C08C2D0E944A05282F81110AC08A94DD
:101680008820C1F261E070E080E090E00E94CC0A26
:10169000EDCF90E0C817D9070CF42C2F3FB7F89482
:1016A000B092E9008091E80085FF33C0822F90E07E
:1016B000C81BD90BAA2029F02150A8F01092F100E4
:1016C000FBCFF801C7FE07C0215058F0449140936A
:1016D000F1003196F9CF215020F041914093F10073
:1016E000FACF080F191FDD2019F07092E8000AC028
:1016F0008091E80085FD08C07092E800DD24D39455
:10170000209739F0D12C05C0209719F491107092D0
:10171000E8003FBFABCFD110ACCF5D9884E680939B
:101720007802C701DF91CF911F910F91FF90EF9049
:10173000DF90CF90BF90AF909F908F907F90089553
:10174000CF93DF93EC0180911201882331F083E085
:101750000E94060B1816190634F081E090E09B8376
:101760008A8380E090E0DF91CF9108952FB7F894BD
:1017700060916002709161028091620290916302B7
:101780002FBF08951F920F920FB60F9211242F931F
:101790003F938F939F93AF93BF93809160029091FB
:1017A0006102A0916202B091630230915F0223E076
:1017B000230F2D3720F40196A11DB11D05C026E889
:1017C000230F0296A11DB11D20935F02809360023A
:1017D00090936102A0936202B093630280916402CD
:1017E00090916502A0916602B09167020196A11DD9
:1017F000B11D8093640290936502A0936602B0933A
:101800006702BF91AF919F918F913F912F910F9060
:101810000FBE0F901F901895AF92BF92CF92DF929C
:10182000EF92FF920F931F93CF93DF931F92CDB749
:10183000DEB77C0169836A01590141E050E0BE01D5
:101840006F5F7F4FFC0183810E94060B8C0197FD27
:101850000BC0F7018381A501B60180640E94060BCD
:1018600097FD02C0800F911F0F90DF91CF911F91C4
:101870000F91FF90EF90DF90CF90BF90AF900895C1
:101880008091570281116BC081E080934A0280935E
:101890004B0220E532E030934D0220934C0210922F
:1018A0004F0210924E0221E631E03093470220931E
:1018B000460210925202109251021092540210925B
:1018C0005302809355028093560281EC809350021C
:1018D0000E949305FC01218180914A0290E0820FD1
:1018E000911D089724F081E08093570238C0A281AF
:1018F000B381109729F486E492E0938382830EC02B
:1019000018968D919C911997009711F0DC01F8CFF2
:1019100086E492E019969C938E9318978081809329
:101920004802818180934902908180914B02890F06
:10193000808380E090914A028917A8F6A0914C021A
:10194000B0914D02A80FB11D9C91A181B0E0A050B3
:10195000BF4F9C9391819F5F91838F5FEBCF86E414
:1019600092E00895CF93DF93DC01683810F0685857
:1019700025C0E62FF0E067FF12C0E058F10981E0D2
:1019800090E001C0880FEA95EAF7809514969C9143
:101990001497892314968C93149760E00FC0EB5F23
:1019A000FE4F6491662329F167FF08C014968C915D
:1019B00014978D7F14968C9314976F77FD0136964C
:1019C00086E0662321F09081961301C01082815039
:1019D00031968111F6CFED010E94400CAE014C5FB3
:1019E0005F4F28E030E062E00E940C0C81E090E064
:1019F00002C080E090E0DF91CF910895CF93DF9314
:101A0000DC01683810F068582DC0E62FF0E067FF61
:101A100011C0E058F10981E090E001C0880FEA951B
:101A2000EAF714969C911497892B14968C9314972B
:101A300060E018C0EB5FFE4F6491611109C081E066
:101A400090E013969C938E93129780E090E046C0AE
:101A500067FF08C014968C911497826014968C933B
:101A600014976F7716968C911697861751F11796E3
:101A70008C911797861729F118968C9118978617CD
:101A800001F119968C9119978617D9F01A968C91B5
:101A90001A978617B1F01B968C911B97861789F0C1
:101AA000FD01369680E090E02191211105C0FD01F5
:101AB000E80FF91F668305C0019686309105A1F7EE
:101AC000BECFED010E94400CAE014C5F5F4F28E09D
:101AD00030E062E00E940C0C81E090E0DF91CF9159
:101AE0000895EF92FF921F93CF93DF93EC01162F8F
:101AF0000E94FE0C7C01612FCE010E94B20CC70136
:101B00009927DF91CF911F91FF90EF9008951F9239
:101B10000F920FB60F9211242F933F934F935F9321
:101B20006F937F938F939F93AF93BF93EF93FF93A5
:101B3000E0917C02F0917D020995FF91EF91BF91B8
:101B4000AF919F918F917F916F915F914F913F9155
:101B50002F910F900FBE0F901F90189580917E02CD
:101B600090917F02019790937F0280937E0260E0C4
:101B700087E00E94600A68E270E080E090E00E94E6
:101B8000CC0A61E087E00E94600A65E070E080E0D6
:101B900090E00C94CC0AEF92FF920F931F93962F34
:101BA000482F50E0FA01EE0FFF1FDF01A40FB51F11
:101BB000AA5EBE4F1C966C911C97209145026C3F0B
:101BC00049F020FF04C01D968C918111682F6D3F54
:101BD00009F443C021FF08C04E0F5F1FFA01EA5EFF
:101BE000FE4F86858111682F6A3F61F4992309F4BD
:101BF00084C080911401909115018831910591F074
:101C000001960CC06B3F99F4992309F476C080913A
:101C1000140190911501009729F0019790931501F7
:101C2000809314018091140180935C019BC06C3FF0
:101C300091F480915B0182FF06C0992309F45DC095
:101C400020FD05C002C0992311F0216001C02E7F44
:101C50002093450252C06D3F91F480915B0183FF58
:101C600006C0992309F480C021FD05C002C0992354
:101C700011F0226001C02D7F2093450275C0663FA0
:101C800011F49F5727C0673F11F49F572AC0683F40
:101C900011F49F572DC0693F21F49F579093EA029A
:101CA00050C06C3D08F44FC06E3D81F030F46C3D87
:101CB000A1F06D3D01F56FE711C0603EA9F020F085
:101CC000613EC9F461E811C06FE701C061E8969F09
:101CD000902D11249093E70234C061E8969F902DD7
:101CE00011249093E8022DC06FE7969F902D112448
:101CF0009093E90226C0663EA8F18AE1860F209102
:101D0000EB023091EC0241E050E060E070E07A01DB
:101D10008B0104C0EE0CFF1C001F111F8A95D2F727
:101D2000911107C0D801C701809590958223932314
:101D300004C0D801C701822B932B9093EC028093AF
:101D4000EB0281E013C06D3060F0992329F08BED38
:101D500092E00E94FE0C06C08BED92E00E94B20C55
:101D600001C004C080E002C06DEFC7CF1F910F918A
:101D7000FF90EF9008954F925F926F927F928F92B3
:101D80009F92AF92BF92CF92DF92EF92FF920F930A
:101D90001F93CF93DF93C6EED1E049E6A42E41E036
:101DA000B42E8501E12CF12C912C44244A9453E06B
:101DB000552E612C712CF701EA5EFE4F8485865FFB
:101DC000843008F048C0D801EC91E23108F0E251CB
:101DD000F0E0E750FF4FE49120917B00E3FBCC243F
:101DE000C0F8D12CC60135E0880F991F3A95E1F76C
:101DF000922F9F7D892B80937B00E770E064E093B6
:101E00007C0080917A00806480937A0080917A00CF
:101E100086FDFCCFA091780080917900B0E0B82BCE
:101E200024E931E00E948D19A30192010E942C192E
:101E3000BA01A9014B5451096109710977FD08C024
:101E4000842F4F3F5105610571051CF08EEF01C0D5
:101E500080E0882E09C0F80180810E94370A88241A
:101E60008394892B09F0812C8881881601F10E94C6
:101E7000B60B29813A814B815C81DC01CB01821B4D
:101E8000930BA40BB50B4A97A105B10580F088828E
:101E90000E94B60B69837A838B839C83682D802F85
:101EA0008A190E94CB0D882311F099249394F3E0B2
:101EB000EF0EF11C25960F5F1F4F89E3E816F10422
:101EC00009F079CF992091F0DF91CF911F910F9177
:101ED000FF90EF90DF90CF90BF90AF909F908F904A
:101EE0007F906F905F904F900C94F310DF91CF91A3
:101EF0001F910F91FF90EF90DF90CF90BF90AF9028
:101F00009F908F907F906F905F904F900895EF9289
:101F1000FF920F931F93CF93DF931F92CDB7DEB73E
:101F20008AEE90E00E94E71006E111E088E0E82EDA
:101F3000F12CF80161918F01C70169830E94161984
:101F40006981681719F0C7010E941E19FFEFEF1A87
:101F5000FF0A8FE4E816F10461F70F90DF91CF914B
:101F60001F910F91FF90EF900895FF920F931F9391
:101F7000CF93DF93C3EDD1E008E010E0FC2E8CE0BE
:101F8000F80EC8010E941619299190E0022E000C4B
:101F9000330B82179307B9F40F5F1F4FFC12F1CF79
:101FA0008AEC90E00E94E71006E111E0C8E0D0E082
:101FB000CE010E941619F80181938F012196CF342A
:101FC000D105B1F70BC08AED90E00E94E710DF91D8
:101FD000CF911F910F91FF900C94870FDF91CF91BC
:101FE0001F910F91FF900895BC01009791F0FC01A3
:101FF00001900020E9F73197AF01481B590BE091A0
:102000008B02F0918C020280F381E02D8BE892E04C
:10201000099480E090E008950F931F930E94B60BFF
:10202000609393027093940280939502909396022A
:10203000E0918B02F0918C020484F585E02D8BE811
:1020400092E0099597FF1FC00E94B60B0091930282
:10205000109194022091950230919602DC01CB01FF
:10206000801B910BA20BB30B00918F021091900279
:10207000209191023091920280179107A207B30735
:10208000B8F28FEF9FEF1F910F91089582EE91E0CC
:102090000C94F40F0F931F93CF93DF938C01C0E048
:1020A000D0E0F801EC0FFD1F6491662371F0E09120
:1020B0008B02F0918C020190F081E02D8BE892E090
:1020C0000995892B11F02196ECCFCE01DF91CF91AC
:1020D0001F910F910895E0918B02F0918C02019075
:1020E000F081E02D682F8BE892E009940C94F40FB6
:1020F0008F929F92AF92BF920F931F93CF93DF93D4
:10210000CDB7DEB7A1970FB6F894DEBF0FBECDBF37
:1021100019A2423008F44AE08E010F5D1F4F842E51
:10212000912CA12CB12CA50194010E945619E62FE7
:10213000B901CA0101501109EA3014F4E05D01C08F
:10214000E95CD801EC93232B242B252B61F7C801E4
:102150000E94F40FA1960FB6F894DEBF0FBECDBF5C
:10216000DF91CF911F910F91BF90AF909F908F9073
:102170000895CF92DF92EF92FF92CF93DF936C019D
:10218000990FEE08FF08F7FE17C08DE20E946B1052
:10219000EC0166277727CB016C197D098E099F0911
:1021A0004AE00E9478108C0F9D1FDF91CF91FF9025
:1021B000EF90DF90CF9008954AE0C701B601DF911C
:1021C000CF91FF90EF90DF90CF900C947810CF9349
:1021D000DF930E944A10EC010E9446108C0F9D1F55
:1021E000DF91CF910895CF93DF9300D000D000D03E
:1021F000CDB7DEB7E7EEF2E09481858199838A83DB
:1022000080818B8381818C8382818D8383818E8386
:102210000E94400C26E030E0AE014F5F5F4F63E06C
:102220000E940C0C26960FB6F894DEBF0FBECDBFF1
:10223000DF91CF910895CF92DF92EF92FF92CF93EB
:10224000DF936C01990FEE08FF08F7FE12C08DE2D4
:102250000E946B10EC0166277727CB016C197D0972
:102260008E099F094AE00E9478107C01EC0EFD1E49
:1022700006C04AE0C701B6010E9478107C010E94A6
:1022800046108E0D9F1DDF91CF91FF90EF90DF9054
:10229000CF900895682F70E080E090E04AE00C94C1
:1022A0007810FF920F931F93CF93DF9300D000D04D
:1022B000CDB7DEB70E940C10FC0197FD11C08D3226
:1022C000910591F0C0970A9778F0E0918B02F09118
:1022D0008C020284F385E02D8BE892E00995EACF29
:1022E00060E070E0CB014CC020E030E0A901F12CAF
:1022F000E130F105F1F0ED32F105C9F0CF01C09701
:102300000A97B8F4AAE0B0E00E944B198F01FF0FC2
:10231000220B330BDC01CB01800F911FA21FB31FD7
:102320009C01AD01205331094109510902C0FF242C
:10233000F394E0918B02F0918C020284F385E02DFE
:102340008BE892E029833A834B835C8309950E9452
:102350000C10FC01C09729813A814B815C810A975E
:1023600038F2E130F10521F2FF2041F066277727AE
:10237000CB01621B730B840B950B02C0CA01B90120
:102380000F900F900F900F90DF91CF911F910F91B1
:10239000FF900895FC0180918A02811103C08FEFA4
:1023A0009FEF08959FB7F89482E08093E900209111
:1023B000F20030E01216130614F421E030E021158B
:1023C000310559F0289884E6809389028091F100C4
:1023D00080838091F200882319F09FBFC90108957E
:1023E0008BE68093E800F9CFCF93DF931F92CDB7B0
:1023F000DEB7789484B5826084BD84B5816084BD85
:1024000085B5826085BD85B5816085BD80916E0092
:10241000816080936E0010928100809181008260C3
:102420008093810080918100816080938100809100
:102430008000816080938000809191008260809311
:102440009100809191008160809391008091900033
:102450008160809390008091C10084608093C1006E
:102460008091C10082608093C1008091C100816031
:102470008093C1008091C30081608093C3008091EC
:10248000C00082608093C0008091C2008160809310
:10249000C20080917A00846080937A0080917A00F3
:1024A000826080937A0080917A00816080937A00C4
:1024B00080917A00806880937A0010928A0210924C
:1024C0007B0210927A028091D70081608093D700BE
:1024D00080EA8093D80089B5806189BD89B5826022
:1024E00089BD09B400FEFDCF61E070E080E090E0BE
:1024F0000E94CC0A8091D8008F7C80618093D800A4
:102500008091E000807F8093E0008091E1008E7EEA
:102510008093E1008DE08093E200559A209AEEEFDF
:10252000FFE7859194918B3F9C4D19F481E0809356
:1025300079028FEF9FEF909398028093970284E641
:1025400090E0A0E0B0E080938F0290939002A0937F
:102550009102B09392020E94B50F0E94F310F9E627
:10256000EF2EF1E0FF2E13E11E0D62E0F7018191E5
:102570007F010E94900A1E11F8CF61E08DE00E9459
:10258000900A61E08BE00E94900A61E08BE00E947B
:10259000600A61E087E00E94900A61E087E00E94A3
:1025A000600A60E085E00E94900A85E00E94370A98
:1025B00021E0892B09F020E02093130110915C01A8
:1025C00082E290E090937F0280937E0280917E026F
:1025D00090917F02181619064CF480917E0290911A
:1025E0007F02892B99F30E94AE0DF0CF812F90E0EE
:1025F000909315018093140180E1809381001092E3
:10260000800081E08093820220E43CE930938102E3
:1026100020938002309387002093860091E190936D
:1026200081002BEB3EE030937D0220937C0280936F
:102630006F001092810010928500109284008091AA
:102640008202806180938100E0E0CE2EE0E0DE2E09
:102650008BE892E00E94FF05892B09F48BC48BE87C
:1026600092E00E945307992788369105E1F1CCF456
:102670008136910509F49EC344F48B32910509F427
:102680004CC48D9709F45CC4E3CF8436910509F4FA
:1026900048C38736910509F426C382369105C1F6F1
:1026A000D4C38D36910509F4E2C254F48B369105FA
:1026B00009F408C38C36910559F60E94B50FC8CFAE
:1026C0008337910509F426C48637910549F08E3683
:1026D000910509F0BDCFECE7F1E080E090E014C394
:1026E00088EA98E0E5C28EE197E00E94E71089ED64
:1026F00096E00E94E7108FEA96E00E94E7108DE9CD
:1027000096E00E94E71087E696E00E94E71085E5D4
:1027100096E00E94E71083E496E00E94E71081E3D0
:1027200096E00E94E7108FE196E00E94E7108DE0AE
:1027300096E00E94E71080E090E00E94B9108FEFD1
:1027400095E00E944A1081E090E00E94B91081EF6C
:1027500095E00E944A1082E090E00E94B91083EE5A
:1027600095E00E944A1083E090E00E94B91085ED48
:1027700095E00E944A100E94461084E090E00E947A
:10278000B91087EC95E00E944A1085E090E00E9425
:10279000B91089EB95E00E944A1086E090E00E9413
:1027A000B9108BEA95E00E944A1087E090E00E9401
:1027B000B9108DE995E00E944A1088E090E00E94EF
:1027C000B9108FE895E00E944A1089E090E00E94DD
:1027D000B91081E895E00E944A100E9446108AE0F4
:1027E00090E00E94B91084E795E00E944A108BE0C7
:1027F00090E00E94B91087E695E00E944A108CE0B4
:1028000090E00E94B9108AE595E00E944A108DE0A0
:1028100090E00E94B9108DE495E00E944A100E9459
:1028200046108EE090E00E94B91080E495E00E948E
:102830004A108FE090E00E94B91083E395E00E9477
:102840004A100E94461080E190E00E94B91086E292
:1028500095E00E944A1081E190E00E94B91089E160
:1028600095E00E944A1082E190E00E94B9108CE04D
:1028700095E00E944A100E94461089EF94E00E9461
:10288000E7108CED90E00E94B9108CEE94E00E946D
:102890004A108DED90E00E94B9108FED94E00E94F7
:1028A0004A108EED90E00E94B91082ED94E00E94F3
:1028B0004A108FED90E00E94B91085EC94E00E94E0
:1028C0004A1080EE90E00E94B91088EB94E00E94DC
:1028D0004A1081EE90E00E94B9108BEA94E00E94C9
:1028E0004A100E94461086EF90E00E94B9108EE9CF
:1028F00094E00E944A1087EF90E00E94B91081E9AD
:1029000094E00E944A1088EF90E00E94B91084E899
:1029100094E00E944A1089EF90E00E94B91087E786
:1029200094E00E944A100E94461006EE10E0C80192
:102930000E94B9108EE694E00E944A10C801865E9B
:1029400091090E94B910003F110524F480EE91E036
:102950000E9476108FED91E00E947610C8010197D9
:1029600083709927892B11F40E9446100F5F1F4F27
:10297000063F1105E1F60E9446108AEF90E00E94A2
:10298000B91082E694E00E944A108BEF90E00E941A
:10299000B91086E594E00E944A108CEF90E00E9406
:1029A000B9108AE494E00E944A108DEF90E00E94F2
:1029B000B9108EE394E00E944A100E9446108AEDFE
:1029C00090E00E94B91082E394E00E944A1089EDE1
:1029D00090E00E94B91086E294E00E944A1088EDCF
:1029E00090E00E94B9108AE194E00E944A1087EDBD
:1029F00090E00E94B9108EE094E00E944A100E947C
:102A0000461080E890E00E94B91082E094E00E94B5
:102A10004A1081E890E00E94B91086EF93E00E948E
:102A20004A1082E890E00E94B9108AEE93E00E947A
:102A30004A1083E890E00E94B9108EED93E00E9466
:102A40004A100E94461084E890E00E94B91082ED7E
:102A500093E00E944A1085E890E00E94B91086EC4D
:102A600093E00E944A1086E890E00E94B9108AEB39
:102A700093E00E944A1087E890E00E94B9108EEA25
:102A800093E00E944A100E94461082EB90E00E9460
:102A9000B91082EA93E00E944A1083EB90E00E9412
:102AA000B91086E993E00E944A1080EB90E00E9402
:102AB000B9108AE893E00E944A1081EB90E00E94EE
:102AC000B9108EE793E00E944A100E94461081EDF3
:102AD00090E00E94B91082E793E00E944A1084EDD2
:102AE00090E00E94B91086E693E00E944A1083EDC0
:102AF00090E00E94B9108AE593E00E944A1086EDAA
:102B000090E00E94B9108EE493E00E944A100E9467
:102B1000461082ED90E00E94B91082E493E00E949A
:102B20004A1085ED90E00E94B91086E393E00E9480
:102B30004A1081EC90E00E94B9108AE293E00E9472
:102B40004A108DE090E00E94B9108DE193E00E9460
:102B50004A100E94461082EC90E00E94B91081E178
:102B600093E00E944A1083EC90E00E94B91085E047
:102B700093E00E944A1084EC90E00E94B91089EF23
:102B800092E00E944A1085EC90E00E94B9108DEE10
:102B900092E00E944A100E94461086EC90E00E944B
:102BA000B91081EE92E00E944A1087EC90E00E94FA
:102BB000B91085ED92E00E944A1088EC90E00E94E6
:102BC000B91089EC92E00E944A1089EC90E00E94D2
:102BD000B9108DEB92E00E944A100E9446108AECD8
:102BE00090E00E94B91081EB92E00E944A108BECB9
:102BF00090E00E94B91085EA92E00E944A108CECA5
:102C000090E00E94B91089E992E00E944A108DEC90
:102C100090E00E94B9108DE892E00E944A100E9454
:102C200046100E94461001E210E0C8010E94B9104F
:102C30000436110524F480EE91E00E94761089E8B4
:102C400092E00E944A10802F0E946B1081E892E06F
:102C50000E944A10C80183709927892B11F40E94A1
:102C600046100F5F1F4F0F371105F9F6A0C08BE814
:102C700092E00E9453070E9451118BE892E0698311
:102C80000E9453078BE892E00E94530769816623F4
:102C900091F0883619F0843771F405C2613009F07B
:102CA0000CC280915B018B7F80935B0187E998E088
:102CB0000E94E710CDCC83E398E00E94E7108BE000
:102CC00098E0F6CFE2EAF1E080E090E02191DC01CB
:102CD000AA5EBE4F1C962C93039689339105B1F7DB
:102CE0008BEF97E0E5CFEFE8F1E080E090E0219115
:102CF000DC01AA5EBE4F1C962C9303968933910586
:102D0000B1F78CEE97E0D4CF2191DC01AA5EBE4FE3
:102D10001C962C93039689339105B1F789ED97E0C2
:102D2000C7CF81E60E946B1000E010E080EE91E0DA
:102D30000E947610F801EA5EFE4F84850E944A11D7
:102D40000D5F1F4F0933110589F700E010E080EE99
:102D500091E00E947610F801EA5EFE4F85850E94A0
:102D60004A110D5F1F4F0933110589F700E010E08C
:102D700080EE91E00E947610F801EA5EFE4F8685B3
:102D80000E944A110D5F1F4F0933110589F780EE2C
:102D900091E00E94761080915B010E944A1180EEC2
:102DA00091E00E94761080915C010E944A110E947D
:102DB00046104ECC10E08BE892E00E945307803220
:102DC000A9F50E9451111A3319F460935C012CC0CB
:102DD000193319F460935B0127C0212F30E01632BC
:102DE00060F026523109F901EE0FFF1F2E0F3F1F31
:102DF000F901EA5EFE4F668717C0133160F0235178
:102E00003109F901EE0FFF1F2E0F3F1FF901EA5E96
:102E1000FE4F658709C0F901EE0FFF1F2E0F3F1F00
:102E2000F901EA5EFE4F64871F5FC5CF112351F0A1
:102E300082ED97E00E944A10812F0E944A118AEC8D
:102E400097E036CF89EA97E033CF8BE892E00E9493
:102E500053070E945111E62EF2E1F61708F4F8CB61
:102E60008BE892E00E9453070E945111F62E6623D0
:102E700009F44DC00E2D10E0C801880F991F080FEE
:102E8000191F0A5E1E4F60E0F80184850E94CB0D79
:102E9000F801F48681EA97E00E944A108E2D0E9484
:102EA0004A118BE997E00E944A108F2D0E944A1127
:102EB0008BE892E00E945307809709F078CF0E9438
:102EC0005111F62E60E0F80185850E94CB0DF801C6
:102ED000F58683E997E00E944A108F2D0E944A11DF
:102EE0008BE892E00E945307809709F060CF0E9420
:102EF0005111F62E60E0F80186850E94CB0DF80195
:102F0000F6868BE897E00E944A108F2D4ECF8FE413
:102F100097E0CECE0E94870F9BCB809114019091B9
:102F200015018831910529F0019690931501809340
:102F300014018091140180935C0186E497E011C034
:102F40008091140190911501009729F001979093B9
:102F50001501809314018091140180935C018DE32D
:102F600097E00E944A1080911401909115010E94EF
:102F70001B116ECB009114011091150180917E02FE
:102F800090917F02801791071CF580917E029091AD
:102F90007F024897E9F080917E0290917F0201962E
:102FA00090937F0280937E0260E08BE00E94600A33
:102FB00068E270E080E090E00E94CC0A61E08BE083
:102FC0000E94600A65E070E080E090E00E94CC0A18
:102FD00080917E0290917F020817190744F4809136
:102FE0007E0290917F02892B11F00E94AE0D80919C
:102FF0007E0290917F020817190709F04DC0809159
:103000005C0190E0209187023091880228173907EF
:1030100009F442C00E94B60B009183021091840211
:103020002091850230918602DC01CB01801B910B3F
:10303000A20BB30B813D9740A105B10568F18DE26C
:1030400097E00E944A1060915C0170E080E090E09F
:103050004AE00E9478100E94461060915C018EE464
:1030600090E069830E9416196981681721F08EE447
:1030700090E00E941E190E94B60B60938302709329
:103080008402809385029093860280915C0190E097
:103090009093880280938702C114D10409F4D8CA9E
:1030A0000E940000D5CA613099F480915B01846070
:1030B00080935B0184E898E0FBCD623009F0C8CAD8
:1030C00080915B01877F80935B0183E798E0F0CD7F
:1030D000623009F0BDCA80915B01886080935B011A
:1030E00080E698E0E5CD10928E0210928D0288EE77
:1030F00093E0A0E0B0E080938F0290939002A093C1
:103100009102B093920289EB91E090938C028093AC
:103110008B028FEF9FEF909398028093970210920B
:10312000DE021092DD028BEC91E09093DC02809342
:10313000DB028091F302811113C01092EE02109213
:10314000ED0284EB98E09093F0028093EF028FE21F
:1031500090E09093F2028093F10281E08093F30279
:103160000E94400CFC01A385B485109729F48DEED4
:1031700092E0948783870BC08D919C911197009763
:1031800011F0DC01F9CF8DEE92E08D939C932585B3
:1031900036858091F1029091F202820F931F9687FB
:1031A000858780910103811113C01092FC02109257
:1031B000FB0283EE98E09093FE028093FD0286E38B
:1031C00090E0909300038093FF0281E080930103DD
:1031D0000E94400CFC01A385B485109729F48BEF65
:1031E00092E0948783870BC08D919C9111970097F3
:1031F00011F0DC01F9CF8BEF92E08D939C93258544
:1032000036858091FF0290910003820F931F96876D
:1032100085871092E7021092E8021092E90210925C
:10322000EA021092EC021092EB020895F999FECF97
:1032300092BD81BDF89A992780B50895262FF999F6
:10324000FECF1FBA92BD81BD20BD0FB6F894FA9A89
:10325000F99A0FBE01960895052E97FB1EF400946F
:103260000E94431957FD07D00E94561907FC03D04E
:103270004EF40C94431950954095309521953F4F4D
:103280004F4F5F4F089590958095709561957F4F52
:103290008F4F9F4F08950E947819A59F900DB49F5E
:1032A000900DA49F800D911D11240895A1E21A2E66
:1032B000AA1BBB1BFD010DC0AA1FBB1FEE1FFF1FDA
:1032C000A217B307E407F50720F0A21BB30BE40B2A
:1032D000F50B661F771F881F991F1A9469F7609571
:1032E0007095809590959B01AC01BD01CF0108952B
:1032F000A29FB001B39FC001A39F700D811D112437
:10330000911DB29F700D811D1124911D0895EE0F26
:10331000FF1F0590F491E02D09940E947819B7FFE2
:103320000895821B930B089581E090E0F8940C942B
:063330009919F894FFCF8B
:1033360000C18081000000FFFFFFFF00E1000000E8
:103346000000000118005069636164652076322E22
:103356003300DA0000D90000D80000D70000800052
:10336600008200002000008100007A000078000042
:10337600730000630000B00000B10000FA0000FB1B
:1033860000006900006F00007000000014000000DB
:10339600007B06FE06BE06A206191A1C1B1716158A
:1033A6001413120C0400010302100E0FF8F9F6F7BD
:1033B600E6E7E8E9EAEBECEDEEEFF0F1F2F3F4DC48
:1033C600DDDEDFE6E7E8E9EAEBECEDEEEFF0F1F261
:1033D600F3F4DAD9D8D7808220817A787363B0B1D2
:1033E600FAFB696F7000000000D905A00BFA05EF23
:1033F60005FF055307710700000000710D68054EB3
:10340600074D075069636164652076322E330020CC
:0634160020000D0A000079
:00000001FF
